{
  "contractName": "MasterWill",
  "abi": [
    {
      "inputs": [],
      "payable": false,
      "stateMutability": "nonpayable",
      "type": "constructor"
    },
    {
      "constant": true,
      "inputs": [],
      "name": "getMessage",
      "outputs": [
        {
          "name": "",
          "type": "string"
        }
      ],
      "payable": false,
      "stateMutability": "view",
      "type": "function"
    },
    {
      "constant": true,
      "inputs": [],
      "name": "getLastCaller",
      "outputs": [
        {
          "name": "",
          "type": "address"
        }
      ],
      "payable": false,
      "stateMutability": "view",
      "type": "function"
    },
    {
      "constant": true,
      "inputs": [],
      "name": "getCreator",
      "outputs": [
        {
          "name": "",
          "type": "address"
        }
      ],
      "payable": false,
      "stateMutability": "view",
      "type": "function"
    },
    {
      "constant": true,
      "inputs": [],
      "name": "getTotalGas",
      "outputs": [
        {
          "name": "",
          "type": "uint256"
        }
      ],
      "payable": false,
      "stateMutability": "view",
      "type": "function"
    },
    {
      "constant": false,
      "inputs": [
        {
          "name": "newMessage",
          "type": "string"
        }
      ],
      "name": "setMessage",
      "outputs": [],
      "payable": false,
      "stateMutability": "nonpayable",
      "type": "function"
    }
  ],
  "bytecode": "0x608060405234801561001057600080fd5b50326000806101000a81548173ffffffffffffffffffffffffffffffffffffffff021916908373ffffffffffffffffffffffffffffffffffffffff1602179055503a6003819055506040805190810160405280600b81526020017f68656c6c6f20776f726c64000000000000000000000000000000000000000000815250600290805190602001906100a39291906100a9565b5061014e565b828054600181600116156101000203166002900490600052602060002090601f016020900481019282601f106100ea57805160ff1916838001178555610118565b82800160010185558215610118579182015b828111156101175782518255916020019190600101906100fc565b5b5090506101259190610129565b5090565b61014b91905b8082111561014757600081600090555060010161012f565b5090565b90565b61047f8061015d6000396000f30060806040526004361061006d576000357c0100000000000000000000000000000000000000000000000000000000900463ffffffff1680630ee2cb1014610072578063368b8772146100c957806364326c7114610132578063880b36e71461015d578063ce6d41de146101b4575b600080fd5b34801561007e57600080fd5b50610087610244565b604051808273ffffffffffffffffffffffffffffffffffffffff1673ffffffffffffffffffffffffffffffffffffffff16815260200191505060405180910390f35b3480156100d557600080fd5b50610130600480360381019080803590602001908201803590602001908080601f016020809104026020016040519081016040528093929190818152602001838380828437820191505050505050919291929050505061026d565b005b34801561013e57600080fd5b506101476102d8565b6040518082815260200191505060405180910390f35b34801561016957600080fd5b506101726102e2565b604051808273ffffffffffffffffffffffffffffffffffffffff1673ffffffffffffffffffffffffffffffffffffffff16815260200191505060405180910390f35b3480156101c057600080fd5b506101c961030c565b6040518080602001828103825283818151815260200191508051906020019080838360005b838110156102095780820151818401526020810190506101ee565b50505050905090810190601f1680156102365780820380516001836020036101000a031916815260200191505b509250505060405180910390f35b60008060009054906101000a900473ffffffffffffffffffffffffffffffffffffffff16905090565b80600290805190602001906102839291906103ae565b5032600160006101000a81548173ffffffffffffffffffffffffffffffffffffffff021916908373ffffffffffffffffffffffffffffffffffffffff1602179055503a60036000828254019250508190555050565b6000600354905090565b6000600160009054906101000a900473ffffffffffffffffffffffffffffffffffffffff16905090565b606060028054600181600116156101000203166002900480601f0160208091040260200160405190810160405280929190818152602001828054600181600116156101000203166002900480156103a45780601f10610379576101008083540402835291602001916103a4565b820191906000526020600020905b81548152906001019060200180831161038757829003601f168201915b5050505050905090565b828054600181600116156101000203166002900490600052602060002090601f016020900481019282601f106103ef57805160ff191683800117855561041d565b8280016001018555821561041d579182015b8281111561041c578251825591602001919060010190610401565b5b50905061042a919061042e565b5090565b61045091905b8082111561044c576000816000905550600101610434565b5090565b905600a165627a7a72305820b9264c1720bd80c45106cd19086a5833bd384bea48b670de3108861175b162540029",
  "source": "pragma solidity ^0.4.4;\n\n\ncontract MasterWill {\n  //Begin: state variables\n  address private creator;\n  address private lastCaller;\n  string private message;\n  uint private totalGas;\n  //End: state variables\n\n  //Begin: constructor\n  function MasterWill() {\n    /*\n      We can use the special variable `tx` which gives us information\n      about the current transaction.\n\n      `tx.origin` returns the sender of the transaction.\n      `tx.gasprice` returns how much we pay for the transaction\n    */\n    creator = tx.origin;\n    totalGas = tx.gasprice;\n    message = 'hello world';\n  }\n  //End: constructor\n\n  //Begin: getters\n  function getMessage() constant returns(string) {\n    return message;\n  }\n\n  function getLastCaller() constant returns(address) {\n    return lastCaller;\n  }\n\n  function getCreator() constant returns(address) {\n    return creator;\n  }\n\n  function getTotalGas() constant returns(uint) {\n    return totalGas;\n  }\n  //End: getters\n\n  //Being: setters\n  function setMessage(string newMessage) {\n    message = newMessage;\n    lastCaller = tx.origin;\n    totalGas += tx.gasprice;\n  }\n  //End: setters\n}\n",
  "sourcePath": "/home/prerak/DW/contracts/MasterWill.sol",
  "compiler": {
    "name": "solc",
    "version": "0.4.24+commit.e67f0147.Emscripten.clang"
  },
  "schemaVersion": "2.0.0",
  "updatedAt": "2018-06-09T01:44:35.642Z"
}